{
  "contractName": "BalanceContract",
  "abi": [
    {
      "inputs": [
        {
          "internalType": "address",
          "name": "_walletAddress",
          "type": "address"
        },
        {
          "internalType": "address[]",
          "name": "_tokenAddresses",
          "type": "address[]"
        }
      ],
      "name": "getBalances",
      "outputs": [
        {
          "components": [
            {
              "internalType": "address",
              "name": "token",
              "type": "address"
            },
            {
              "internalType": "uint256",
              "name": "balance",
              "type": "uint256"
            }
          ],
          "internalType": "struct BalanceContract.Amount[]",
          "name": "",
          "type": "tuple[]"
        }
      ],
      "stateMutability": "view",
      "type": "function"
    }
  ],
  "bytecode": "0x608060405234801561001057600080fd5b50610643806100206000396000f3fe608060405234801561001057600080fd5b506004361061002b5760003560e01c80636a385ae914610030575b600080fd5b61004a60048036038101906100459190610360565b610060565b60405161005791906104c2565b60405180910390f35b60608060005b835181101561018a576000848281518110610084576100836104e4565b5b6020026020010151905060008173ffffffffffffffffffffffffffffffffffffffff166370a08231886040518263ffffffff1660e01b81526004016100c99190610522565b602060405180830381865afa1580156100e6573d6000803e3d6000fd5b505050506040513d601f19601f8201168201806040525081019061010a9190610569565b90506000604051806040016040528088868151811061012c5761012b6104e4565b5b602002602001015173ffffffffffffffffffffffffffffffffffffffff16815260200183815250905080858581518110610169576101686104e4565b5b60200260200101819052505050508080610182906105c5565b915050610066565b508091505092915050565b6000604051905090565b600080fd5b600080fd5b600073ffffffffffffffffffffffffffffffffffffffff82169050919050565b60006101d4826101a9565b9050919050565b6101e4816101c9565b81146101ef57600080fd5b50565b600081359050610201816101db565b92915050565b600080fd5b6000601f19601f8301169050919050565b7f4e487b7100000000000000000000000000000000000000000000000000000000600052604160045260246000fd5b6102558261020c565b810181811067ffffffffffffffff821117156102745761027361021d565b5b80604052505050565b6000610287610195565b9050610293828261024c565b919050565b600067ffffffffffffffff8211156102b3576102b261021d565b5b602082029050602081019050919050565b600080fd5b60006102dc6102d784610298565b61027d565b905080838252602082019050602084028301858111156102ff576102fe6102c4565b5b835b81811015610328578061031488826101f2565b845260208401935050602081019050610301565b5050509392505050565b600082601f83011261034757610346610207565b5b81356103578482602086016102c9565b91505092915050565b600080604083850312156103775761037661019f565b5b6000610385858286016101f2565b925050602083013567ffffffffffffffff8111156103a6576103a56101a4565b5b6103b285828601610332565b9150509250929050565b600081519050919050565b600082825260208201905092915050565b6000819050602082019050919050565b6103f1816101c9565b82525050565b6000819050919050565b61040a816103f7565b82525050565b60408201600082015161042660008501826103e8565b5060208201516104396020850182610401565b50505050565b600061044b8383610410565b60408301905092915050565b6000602082019050919050565b600061046f826103bc565b61047981856103c7565b9350610484836103d8565b8060005b838110156104b557815161049c888261043f565b97506104a783610457565b925050600181019050610488565b5085935050505092915050565b600060208201905081810360008301526104dc8184610464565b905092915050565b7f4e487b7100000000000000000000000000000000000000000000000000000000600052603260045260246000fd5b61051c816101c9565b82525050565b60006020820190506105376000830184610513565b92915050565b610546816103f7565b811461055157600080fd5b50565b6000815190506105638161053d565b92915050565b60006020828403121561057f5761057e61019f565b5b600061058d84828501610554565b91505092915050565b7f4e487b7100000000000000000000000000000000000000000000000000000000600052601160045260246000fd5b60006105d0826103f7565b91507fffffffffffffffffffffffffffffffffffffffffffffffffffffffffffffffff820361060257610601610596565b5b60018201905091905056fea26469706673582212202f212259f6522895a0bb2e49b06eb445f2c438ef33e272f5ed2979e040fd4b3864736f6c63430008110033",
  "immutableReferences": {},
  "source": "// SPDX-License-Identifier: MIT\nimport \"@openzeppelin/contracts/token/ERC20/ERC20.sol\";\npragma solidity >=0.4.22 <0.9.0;\n\ncontract BalanceContract {\n    struct Amount {\n        address token;\n        uint256 balance;\n    }\n\n    function getBalances(\n        address _walletAddress,\n        address[] memory _tokenAddresses\n    ) public view returns (Amount[] memory) {\n        Amount[] memory tokenAmounts;\n        for (uint256 i = 0; i < _tokenAddresses.length; i++) {\n            IERC20 token = IERC20(_tokenAddresses[i]);\n            uint256 balance = token.balanceOf(_walletAddress);\n            Amount memory _tokenAmount = Amount(_tokenAddresses[i], balance);\n            tokenAmounts[i] = _tokenAmount;\n        }\n        return tokenAmounts;\n    }\n}\n",
  "sourcePath": "D:\\Work\\Y2 work\\Internships\\Switchero\\Question 5\\contracts\\BalanceContract.sol",
  "compiler": {
    "name": "solc",
    "version": "0.8.17+commit.8df45f5f.Emscripten.clang"
  },
  "schemaVersion": "3.4.11",
  "updatedAt": "2023-01-16T14:04:13.272Z",
  "devdoc": {
    "kind": "dev",
    "methods": {},
    "version": 1
  },
  "userdoc": {
    "kind": "user",
    "methods": {},
    "version": 1
  }
}